{
  "contractName": "FraudDetectionSystem",
  "abi": [
    {
      "constant": true,
      "inputs": [],
      "name": "transactionCount",
      "outputs": [
        {
          "internalType": "uint256",
          "name": "",
          "type": "uint256"
        }
      ],
      "payable": false,
      "stateMutability": "view",
      "type": "function"
    },
    {
      "constant": false,
      "inputs": [
        {
          "internalType": "uint256[28]",
          "name": "_features",
          "type": "uint256[28]"
        },
        {
          "internalType": "uint256",
          "name": "_timestamp",
          "type": "uint256"
        },
        {
          "internalType": "uint256",
          "name": "_amount",
          "type": "uint256"
        },
        {
          "internalType": "uint8",
          "name": "_transactionClass",
          "type": "uint8"
        }
      ],
      "name": "addTransactionEntry",
      "outputs": [],
      "payable": false,
      "stateMutability": "nonpayable",
      "type": "function"
    },
    {
      "constant": false,
      "inputs": [
        {
          "internalType": "uint256",
          "name": "_transactionId",
          "type": "uint256"
        },
        {
          "internalType": "uint256[28]",
          "name": "_features",
          "type": "uint256[28]"
        },
        {
          "internalType": "uint256",
          "name": "_timestamp",
          "type": "uint256"
        },
        {
          "internalType": "uint256",
          "name": "_amount",
          "type": "uint256"
        },
        {
          "internalType": "uint8",
          "name": "_transactionClass",
          "type": "uint8"
        }
      ],
      "name": "editTransactionEntry",
      "outputs": [],
      "payable": false,
      "stateMutability": "nonpayable",
      "type": "function"
    },
    {
      "constant": true,
      "inputs": [
        {
          "internalType": "uint256",
          "name": "_transactionId",
          "type": "uint256"
        }
      ],
      "name": "getTransactionEntry",
      "outputs": [
        {
          "internalType": "uint256[28]",
          "name": "features",
          "type": "uint256[28]"
        },
        {
          "internalType": "uint256",
          "name": "timestamp",
          "type": "uint256"
        },
        {
          "internalType": "uint256",
          "name": "amount",
          "type": "uint256"
        },
        {
          "internalType": "uint8",
          "name": "transactionClass",
          "type": "uint8"
        }
      ],
      "payable": false,
      "stateMutability": "view",
      "type": "function"
    }
  ],
  "bytecode": "0x608060405234801561001057600080fd5b506104a2806100206000396000f3fe608060405234801561001057600080fd5b506004361061004c5760003560e01c80636f1717a514610051578063ad3da1ab146100c2578063b77bf6001461012b578063dfbbe76114610145575b600080fd5b61006e6004803603602081101561006757600080fd5b50356101a7565b604051808561038080838360005b8381101561009457818101518382015260200161007c565b505050509050018481526020018381526020018260ff1660ff16815260200194505050505060405180910390f35b61012960048036036104008110156100d957600080fd5b6040805161038081810190925283359392830192916103a0830191906020840190601c9083908390808284376000920191909152509194505081359250506020810135906040013560ff166102a4565b005b610133610372565b60408051918252519081900360200190f35b61012960048036036103e081101561015c57600080fd5b81019080806103800190601c806020026040519081016040528092919082601c602002808284376000920191909152509194505081359250506020810135906040013560ff16610378565b6101af6103c2565b6000806000600154851061020a576040805162461bcd60e51b815260206004820152601d60248201527f5472616e73616374696f6e20494420646f6573206e6f74206578697374000000604482015290519081900360640190fd5b6102126103e1565b6000868152602081905260409081902081516104008101909252816080810182601c8282826020028201915b81548152602001906001019080831161023e575050509183525050601c820154602080830191909152601d830154604080840191909152601e9093015460ff16606092830152835190840151928401519390910151909991985091965090945092505050565b60015485106102fa576040805162461bcd60e51b815260206004820152601d60248201527f5472616e73616374696f6e20494420646f6573206e6f74206578697374000000604482015290519081900360640190fd5b60408051608081018252858152602080820186905281830185905260ff8416606083015260008881529081905291909120815161033a908290601c610412565b506020820151601c8201556040820151601d820155606090910151601e909101805460ff191660ff9092169190911790555050505050565b60015481565b6001805480820190915560408051608081018252868152602080820187905281830186905260ff8516606083015260008481529081905291909120815161033a908290601c610412565b604051806103800160405280601c906020820280388339509192915050565b60405180608001604052806103f46103c2565b81526020016000815260200160008152602001600060ff1681525090565b82601c8101928215610440579160200282015b82811115610440578251825591602001919060010190610425565b5061044c929150610450565b5090565b61046a91905b8082111561044c5760008155600101610456565b9056fea265627a7a72315820ebab683839c5c88d58aa235727a402fcd297ff498169d5fe4dd4b87de1217c9d64736f6c63430005100032",
  "source": "// SPDX-License-Identifier: MIT\r\npragma solidity >=0.4.21 <0.6.0;\r\n\r\ncontract FraudDetectionSystem {\r\n    struct TransactionEntry {\r\n        uint256[28] features;\r\n        uint256 timestamp;\r\n        uint256 amount;\r\n        uint8 transactionClass;\r\n    }\r\n\r\n    mapping(uint256 => TransactionEntry) transactions;\r\n    uint256 public transactionCount;\r\n\r\n    /**\r\n     * @dev Function to add a new transaction entry.\r\n     * @param _features Array of 28 uint256 values representing features V1 to V28.\r\n     * @param _timestamp Timestamp representing the time of the transaction.\r\n     * @param _amount Amount of the transaction.\r\n     * @param _transactionClass Class of the transaction (0 for Legitimate Transaction, 1 for Fraud Transaction).\r\n     */\r\n    function addTransactionEntry(\r\n        uint256[28] memory _features,\r\n        uint256 _timestamp,\r\n        uint256 _amount,\r\n        uint8 _transactionClass\r\n    ) public {\r\n        uint256 transactionId = transactionCount++;\r\n        transactions[transactionId] = TransactionEntry(_features, _timestamp, _amount, _transactionClass);\r\n    }\r\n\r\n    /**\r\n     * @dev Function to edit an existing transaction entry.\r\n     * @param _transactionId ID of the transaction entry to be edited.\r\n     * @param _features Array of 28 uint256 values representing features V1 to V28.\r\n     * @param _timestamp Timestamp representing the time of the transaction.\r\n     * @param _amount Amount of the transaction.\r\n     * @param _transactionClass Class of the transaction (0 for Legitimate Transaction, 1 for Fraud Transaction).\r\n     */\r\n    function editTransactionEntry(\r\n        uint256 _transactionId,\r\n        uint256[28] memory _features,\r\n        uint256 _timestamp,\r\n        uint256 _amount,\r\n        uint8 _transactionClass\r\n    ) public {\r\n        require(_transactionId < transactionCount, \"Transaction ID does not exist\");\r\n        transactions[_transactionId] = TransactionEntry(_features, _timestamp, _amount, _transactionClass);\r\n    }\r\n\r\n    /**\r\n     * @dev Function to fetch details of a transaction entry by ID.\r\n     * @param _transactionId ID of the transaction entry to fetch.\r\n     * @return features Array of 28 uint256 values representing features V1 to V28.\r\n     * @return timestamp Timestamp representing the time of the transaction.\r\n     * @return amount Amount of the transaction.\r\n     * @return transactionClass Class of the transaction (0 for Legitimate Transaction, 1 for Fraud Transaction).\r\n     */\r\n    function getTransactionEntry(\r\n        uint256 _transactionId\r\n    )\r\n        public\r\n        view\r\n        returns (\r\n            uint256[28] memory features,\r\n            uint256 timestamp,\r\n            uint256 amount,\r\n            uint8 transactionClass\r\n        )\r\n    {\r\n        require(_transactionId < transactionCount, \"Transaction ID does not exist\");\r\n        TransactionEntry memory entry = transactions[_transactionId];\r\n        return (entry.features, entry.timestamp, entry.amount, entry.transactionClass);\r\n    }\r\n}\r\n",
  "sourcePath": "C:\\Users\\91931\\Desktop\\DEEP\\dmProject\\BlockChain-Based-Fraud-Detection-System\\blockchain\\contracts\\FraudDetectionSystem.sol",
  "compiler": {
    "name": "solc",
    "version": "0.5.16+commit.9c3226ce.Emscripten.clang"
  },
  "schemaVersion": "3.4.16",
  "updatedAt": "2023-11-09T16:28:23.009Z",
  "networkType": "ethereum",
  "devdoc": {
    "methods": {
      "addTransactionEntry(uint256[28],uint256,uint256,uint8)": {
        "details": "Function to add a new transaction entry.",
        "params": {
          "_amount": "Amount of the transaction.",
          "_features": "Array of 28 uint256 values representing features V1 to V28.",
          "_timestamp": "Timestamp representing the time of the transaction.",
          "_transactionClass": "Class of the transaction (0 for Legitimate Transaction, 1 for Fraud Transaction)."
        }
      },
      "editTransactionEntry(uint256,uint256[28],uint256,uint256,uint8)": {
        "details": "Function to edit an existing transaction entry.",
        "params": {
          "_amount": "Amount of the transaction.",
          "_features": "Array of 28 uint256 values representing features V1 to V28.",
          "_timestamp": "Timestamp representing the time of the transaction.",
          "_transactionClass": "Class of the transaction (0 for Legitimate Transaction, 1 for Fraud Transaction).",
          "_transactionId": "ID of the transaction entry to be edited."
        }
      },
      "getTransactionEntry(uint256)": {
        "details": "Function to fetch details of a transaction entry by ID.",
        "params": {
          "_transactionId": "ID of the transaction entry to fetch."
        },
        "return": "features Array of 28 uint256 values representing features V1 to V28.timestamp Timestamp representing the time of the transaction.amount Amount of the transaction.transactionClass Class of the transaction (0 for Legitimate Transaction, 1 for Fraud Transaction)."
      }
    }
  },
  "userdoc": {
    "methods": {}
  }
}