{
  "contractName": "GrantAllocationSystem",
  "abi": [
    {
      "constant": true,
      "inputs": [],
      "name": "grantCount",
      "outputs": [
        {
          "internalType": "uint256",
          "name": "",
          "type": "uint256"
        }
      ],
      "payable": false,
      "stateMutability": "view",
      "type": "function"
    },
    {
      "constant": false,
      "inputs": [
        {
          "internalType": "uint256[28]",
          "name": "_features",
          "type": "uint256[28]"
        },
        {
          "internalType": "uint256",
          "name": "_time",
          "type": "uint256"
        },
        {
          "internalType": "uint256",
          "name": "_amount",
          "type": "uint256"
        },
        {
          "internalType": "uint8",
          "name": "_class",
          "type": "uint8"
        }
      ],
      "name": "addGrantEntry",
      "outputs": [],
      "payable": false,
      "stateMutability": "nonpayable",
      "type": "function"
    },
    {
      "constant": false,
      "inputs": [
        {
          "internalType": "uint256",
          "name": "_grantId",
          "type": "uint256"
        },
        {
          "internalType": "uint256[28]",
          "name": "_features",
          "type": "uint256[28]"
        },
        {
          "internalType": "uint256",
          "name": "_time",
          "type": "uint256"
        },
        {
          "internalType": "uint256",
          "name": "_amount",
          "type": "uint256"
        },
        {
          "internalType": "uint8",
          "name": "_class",
          "type": "uint8"
        }
      ],
      "name": "editGrantEntry",
      "outputs": [],
      "payable": false,
      "stateMutability": "nonpayable",
      "type": "function"
    },
    {
      "constant": true,
      "inputs": [
        {
          "internalType": "uint256",
          "name": "_grantId",
          "type": "uint256"
        }
      ],
      "name": "getGrantEntry",
      "outputs": [
        {
          "internalType": "uint256[28]",
          "name": "features",
          "type": "uint256[28]"
        },
        {
          "internalType": "uint256",
          "name": "time",
          "type": "uint256"
        },
        {
          "internalType": "uint256",
          "name": "amount",
          "type": "uint256"
        },
        {
          "internalType": "uint8",
          "name": "class",
          "type": "uint8"
        }
      ],
      "payable": false,
      "stateMutability": "view",
      "type": "function"
    }
  ],
  "bytecode": "0x608060405234801561001057600080fd5b50610496806100206000396000f3fe608060405234801561001057600080fd5b506004361061004c5760003560e01c80635bd1b02214610051578063889a7cbe146100c2578063cab426721461012b578063dc1be5ed14610145575b600080fd5b61006e6004803603602081101561006757600080fd5b50356101a7565b604051808561038080838360005b8381101561009457818101518382015260200161007c565b505050509050018481526020018381526020018260ff1660ff16815260200194505050505060405180910390f35b61012960048036036104008110156100d957600080fd5b6040805161038081810190925283359392830192916103a0830191906020840190601c9083908390808284376000920191909152509194505081359250506020810135906040013560ff1661029e565b005b610133610366565b60408051918252519081900360200190f35b61012960048036036103e081101561015c57600080fd5b81019080806103800190601c806020026040519081016040528092919082601c602002808284376000920191909152509194505081359250506020810135906040013560ff1661036c565b6101af6103b6565b60008060006001548510610204576040805162461bcd60e51b815260206004820152601760248201527611dc985b9d08125108191bd95cc81b9bdd08195e1a5cdd604a1b604482015290519081900360640190fd5b61020c6103d5565b6000868152602081905260409081902081516104008101909252816080810182601c8282826020028201915b815481526020019060010190808311610238575050509183525050601c820154602080830191909152601d830154604080840191909152601e9093015460ff16606092830152835190840151928401519390910151909991985091965090945092505050565b60015485106102ee576040805162461bcd60e51b815260206004820152601760248201527611dc985b9d08125108191bd95cc81b9bdd08195e1a5cdd604a1b604482015290519081900360640190fd5b60408051608081018252858152602080820186905281830185905260ff8416606083015260008881529081905291909120815161032e908290601c610406565b506020820151601c8201556040820151601d820155606090910151601e909101805460ff191660ff9092169190911790555050505050565b60015481565b6001805480820190915560408051608081018252868152602080820187905281830186905260ff8516606083015260008481529081905291909120815161032e908290601c610406565b604051806103800160405280601c906020820280388339509192915050565b60405180608001604052806103e86103b6565b81526020016000815260200160008152602001600060ff1681525090565b82601c8101928215610434579160200282015b82811115610434578251825591602001919060010190610419565b50610440929150610444565b5090565b61045e91905b80821115610440576000815560010161044a565b9056fea265627a7a723158209830229cbb5a9aed0d9a09c1d409218fec1dbe5a783ab05a45ebba0684c6737464736f6c63430005100032",
  "source": "// SPDX-License-Identifier: MIT\r\npragma solidity >=0.4.21 <0.6.0;\r\n\r\ncontract GrantAllocationSystem {\r\n    struct GrantEntry {\r\n        uint256[28] features;\r\n        uint256 time;\r\n        uint256 amount;\r\n        uint8 class;\r\n    }\r\n\r\n    mapping(uint256 => GrantEntry) grants;\r\n    uint256 public grantCount;\r\n\r\n    /**\r\n     * @dev Function to add a new grant entry.\r\n     * @param _features Array of 28 uint256 values representing features V1 to V28.\r\n     * @param _time Timestamp representing the time of the grant.\r\n     * @param _amount Amount of the grant.\r\n     * @param _class Class of the grant (0 for Legitimate Transaction, 1 for Fraud Transaction).\r\n     */\r\n    function addGrantEntry(\r\n        uint256[28] memory _features,\r\n        uint256 _time,\r\n        uint256 _amount,\r\n        uint8 _class\r\n    ) public {\r\n        uint256 grantId = grantCount++;\r\n        grants[grantId] = GrantEntry(_features, _time, _amount, _class);\r\n    }\r\n\r\n    /**\r\n     * @dev Function to edit an existing grant entry.\r\n     * @param _grantId ID of the grant entry to be edited.\r\n     * @param _features Array of 28 uint256 values representing features V1 to V28.\r\n     * @param _time Timestamp representing the time of the grant.\r\n     * @param _amount Amount of the grant.\r\n     * @param _class Class of the grant (0 for Legitimate Transaction, 1 for Fraud Transaction).\r\n     */\r\n    function editGrantEntry(\r\n        uint256 _grantId,\r\n        uint256[28] memory _features,\r\n        uint256 _time,\r\n        uint256 _amount,\r\n        uint8 _class\r\n    ) public {\r\n        require(_grantId < grantCount, \"Grant ID does not exist\");\r\n        grants[_grantId] = GrantEntry(_features, _time, _amount, _class);\r\n    }\r\n\r\n    /**\r\n     * @dev Function to fetch details of a grant entry by ID.\r\n     * @param _grantId ID of the grant entry to fetch.\r\n     * @return features Array of 28 uint256 values representing features V1 to V28.\r\n     * @return time Timestamp representing the time of the grant.\r\n     * @return amount Amount of the grant.\r\n     * @return class Class of the grant (0 for Legitimate Transaction, 1 for Fraud Transaction).\r\n     */\r\n    function getGrantEntry(\r\n        uint256 _grantId\r\n    )\r\n        public\r\n        view\r\n        returns (\r\n            uint256[28] memory features,\r\n            uint256 time,\r\n            uint256 amount,\r\n            uint8 class\r\n        )\r\n    {\r\n        require(_grantId < grantCount, \"Grant ID does not exist\");\r\n        GrantEntry memory entry = grants[_grantId];\r\n        return (entry.features, entry.time, entry.amount, entry.class);\r\n    }\r\n}\r\n",
  "sourcePath": "C:\\Users\\91931\\Desktop\\DEEP\\dmProject\\BlockChain-Based-Fraud-Detection-System\\blockchain\\contracts\\smart_contract.sol",
  "compiler": {
    "name": "solc",
    "version": "0.5.16+commit.9c3226ce.Emscripten.clang"
  },
  "schemaVersion": "3.4.16",
  "updatedAt": "2023-11-09T16:19:37.074Z",
  "networkType": "ethereum",
  "devdoc": {
    "methods": {
      "addGrantEntry(uint256[28],uint256,uint256,uint8)": {
        "details": "Function to add a new grant entry.",
        "params": {
          "_amount": "Amount of the grant.",
          "_class": "Class of the grant (0 for Legitimate Transaction, 1 for Fraud Transaction).",
          "_features": "Array of 28 uint256 values representing features V1 to V28.",
          "_time": "Timestamp representing the time of the grant."
        }
      },
      "editGrantEntry(uint256,uint256[28],uint256,uint256,uint8)": {
        "details": "Function to edit an existing grant entry.",
        "params": {
          "_amount": "Amount of the grant.",
          "_class": "Class of the grant (0 for Legitimate Transaction, 1 for Fraud Transaction).",
          "_features": "Array of 28 uint256 values representing features V1 to V28.",
          "_grantId": "ID of the grant entry to be edited.",
          "_time": "Timestamp representing the time of the grant."
        }
      },
      "getGrantEntry(uint256)": {
        "details": "Function to fetch details of a grant entry by ID.",
        "params": {
          "_grantId": "ID of the grant entry to fetch."
        },
        "return": "features Array of 28 uint256 values representing features V1 to V28.time Timestamp representing the time of the grant.amount Amount of the grant.class Class of the grant (0 for Legitimate Transaction, 1 for Fraud Transaction)."
      }
    }
  },
  "userdoc": {
    "methods": {}
  }
}