{
  "contractName": "HealthcareAutomation",
  "abi": [
    {
      "inputs": [],
      "payable": false,
      "stateMutability": "nonpayable",
      "type": "constructor"
    },
    {
      "anonymous": false,
      "inputs": [
        {
          "indexed": false,
          "internalType": "uint256",
          "name": "timestamp",
          "type": "uint256"
        },
        {
          "indexed": false,
          "internalType": "string",
          "name": "deviceId",
          "type": "string"
        },
        {
          "indexed": false,
          "internalType": "uint256",
          "name": "value",
          "type": "uint256"
        }
      ],
      "name": "DataStored",
      "type": "event"
    },
    {
      "anonymous": false,
      "inputs": [
        {
          "indexed": false,
          "internalType": "string",
          "name": "deviceId",
          "type": "string"
        },
        {
          "indexed": false,
          "internalType": "uint256",
          "name": "value",
          "type": "uint256"
        },
        {
          "indexed": false,
          "internalType": "uint256",
          "name": "timestamp",
          "type": "uint256"
        }
      ],
      "name": "ThresholdExceeded",
      "type": "event"
    },
    {
      "constant": true,
      "inputs": [
        {
          "internalType": "uint256",
          "name": "",
          "type": "uint256"
        }
      ],
      "name": "medicalRecords",
      "outputs": [
        {
          "internalType": "uint256",
          "name": "timestamp",
          "type": "uint256"
        },
        {
          "internalType": "string",
          "name": "deviceId",
          "type": "string"
        },
        {
          "internalType": "uint256",
          "name": "value",
          "type": "uint256"
        }
      ],
      "payable": false,
      "stateMutability": "view",
      "type": "function"
    },
    {
      "constant": true,
      "inputs": [],
      "name": "owner",
      "outputs": [
        {
          "internalType": "address",
          "name": "",
          "type": "address"
        }
      ],
      "payable": false,
      "stateMutability": "view",
      "type": "function"
    },
    {
      "constant": true,
      "inputs": [],
      "name": "recordCount",
      "outputs": [
        {
          "internalType": "uint256",
          "name": "",
          "type": "uint256"
        }
      ],
      "payable": false,
      "stateMutability": "view",
      "type": "function"
    },
    {
      "constant": true,
      "inputs": [],
      "name": "thresholdValue",
      "outputs": [
        {
          "internalType": "uint256",
          "name": "",
          "type": "uint256"
        }
      ],
      "payable": false,
      "stateMutability": "view",
      "type": "function"
    },
    {
      "constant": false,
      "inputs": [
        {
          "internalType": "uint256",
          "name": "_thresholdValue",
          "type": "uint256"
        }
      ],
      "name": "setThresholdValue",
      "outputs": [],
      "payable": false,
      "stateMutability": "nonpayable",
      "type": "function"
    },
    {
      "constant": false,
      "inputs": [
        {
          "internalType": "string",
          "name": "_deviceId",
          "type": "string"
        },
        {
          "internalType": "uint256",
          "name": "_value",
          "type": "uint256"
        }
      ],
      "name": "storeMedicalData",
      "outputs": [],
      "payable": false,
      "stateMutability": "nonpayable",
      "type": "function"
    },
    {
      "constant": true,
      "inputs": [
        {
          "internalType": "uint256",
          "name": "_index",
          "type": "uint256"
        }
      ],
      "name": "getMedicalData",
      "outputs": [
        {
          "internalType": "uint256",
          "name": "",
          "type": "uint256"
        },
        {
          "internalType": "string",
          "name": "",
          "type": "string"
        },
        {
          "internalType": "uint256",
          "name": "",
          "type": "uint256"
        }
      ],
      "payable": false,
      "stateMutability": "view",
      "type": "function"
    },
    {
      "constant": true,
      "inputs": [],
      "name": "getRecordCount",
      "outputs": [
        {
          "internalType": "uint256",
          "name": "",
          "type": "uint256"
        }
      ],
      "payable": false,
      "stateMutability": "view",
      "type": "function"
    }
  ],
  "bytecode": "0x60806040526064600055600060035534801561001a57600080fd5b50600180546001600160a01b031916331790556107588061003c6000396000f3fe608060405234801561001057600080fd5b50600436106100885760003560e01c8063900407bc1161005b578063900407bc1461018b578063ca267f2814610193578063d38177eb1461019b578063dcaeac2e146101ba57610088565b806319a2c6d41461008d578063488a64f0146101305780637564a13c1461014a5780638da5cb5b14610167575b600080fd5b6100aa600480360360208110156100a357600080fd5b5035610262565b6040518084815260200180602001838152602001828103825284818151815260200191508051906020019080838360005b838110156100f35781810151838201526020016100db565b50505050905090810190601f1680156101205780820380516001836020036101000a031916815260200191505b5094505050505060405180910390f35b61013861035f565b60408051918252519081900360200190f35b6100aa6004803603602081101561016057600080fd5b5035610365565b61016f610410565b604080516001600160a01b039092168252519081900360200190f35b61013861041f565b610138610425565b6101b8600480360360208110156101b157600080fd5b503561042c565b005b6101b8600480360360408110156101d057600080fd5b8101906020810181356401000000008111156101eb57600080fd5b8201836020820111156101fd57600080fd5b8035906020019184600183028401116401000000008311171561021f57600080fd5b91908080601f016020809104026020016040519081016040528093929190818152602001838380828437600092019190915250929550509135925061047a915050565b60006060600061027061063a565b6002600086815260200190815260200160002060405180606001604052908160008201548152602001600182018054600181600116156101000203166002900480601f0160208091040260200160405190810160405280929190818152602001828054600181600116156101000203166002900480156103315780601f1061030657610100808354040283529160200191610331565b820191906000526020600020905b81548152906001019060200180831161031457829003601f168201915b5050509183525050600291909101546020918201528151908201516040909201519097919650945092505050565b60005481565b60026020818152600092835260409283902080546001808301805487519281161561010002600019011695909504601f81018590048502820185019096528581529094919390929091908301828280156104005780601f106103d557610100808354040283529160200191610400565b820191906000526020600020905b8154815290600101906020018083116103e357829003601f168201915b5050505050908060020154905083565b6001546001600160a01b031681565b60035481565b6003545b90565b6001546001600160a01b031633146104755760405162461bcd60e51b81526004018080602001828103825260308152602001806106f46030913960400191505060405180910390fd5b600055565b604080516060810182524280825260208083018681528385018690526003546000908152600283529490942083518155935180519294926104c1926001850192019061065b565b50604082015181600201559050507f1e8ea41e7410d1611fb4c88d8630d733f6ef11270e4a361b6ed3565b3b6c7a568184846040518084815260200180602001838152602001828103825284818151815260200191508051906020019080838360005b8381101561053c578181015183820152602001610524565b50505050905090810190601f1680156105695780820380516001836020036101000a031916815260200191505b5094505050505060405180910390a160005482111561062c577f18527e28a560f4e7511d3ae13ca015fec46349fc9957988ff1ae0a74054e13938383836040518080602001848152602001838152602001828103825285818151815260200191508051906020019080838360005b838110156105ef5781810151838201526020016105d7565b50505050905090810190601f16801561061c5780820380516001836020036101000a031916815260200191505b5094505050505060405180910390a15b505060038054600101905550565b60405180606001604052806000815260200160608152602001600081525090565b828054600181600116156101000203166002900490600052602060002090601f016020900481019282601f1061069c57805160ff19168380011785556106c9565b828001600101855582156106c9579182015b828111156106c95782518255916020019190600101906106ae565b506106d59291506106d9565b5090565b61042991905b808211156106d557600081556001016106df56fe4f6e6c792074686520636f6e7472616374206f776e65722063616e20706572666f726d207468697320616374696f6e2ea265627a7a72315820a4a96ea0f954c839bdc4751d46f25b4a46c0b015c1395d71506e0f62075bbdcb64736f6c63430005100032",
  "source": "// SPDX-License-Identifier: MIT\r\npragma solidity ^0.5.7;\r\n\r\ncontract HealthcareAutomation {\r\n\r\n    // Define the structure for Medical Data\r\n    struct MedicalData {\r\n        uint timestamp;   // Timestamp of the data entry\r\n        string deviceId;  // ID of the medical IoT device\r\n        uint value;       // Processed data value (cleaned, filtered, aggregated)\r\n    }\r\n\r\n    // Threshold value for triggering an action\r\n    uint public thresholdValue = 100;\r\n\r\n    // Contract owner address\r\n    address public owner;\r\n\r\n    // Mapping to store medical data records\r\n    mapping(uint => MedicalData) public medicalRecords;\r\n    uint public recordCount = 0;\r\n\r\n    // Event emitted when data is stored\r\n    event DataStored(uint timestamp, string deviceId, uint value);\r\n\r\n    // Event emitted when the threshold is exceeded\r\n    event ThresholdExceeded(string deviceId, uint value, uint timestamp);\r\n\r\n    // Constructor to set the contract deployer as the owner\r\n    constructor() public {\r\n        owner = msg.sender;\r\n    }\r\n\r\n    // Modifier to restrict functions to the contract owner\r\n    modifier onlyOwner() {\r\n        require(msg.sender == owner, \"Only the contract owner can perform this action.\");\r\n        _;\r\n    }\r\n\r\n    // Function to update the threshold value (only owner can do this)\r\n    function setThresholdValue(uint _thresholdValue) public onlyOwner {\r\n        thresholdValue = _thresholdValue;\r\n    }\r\n\r\n    // Function to store the medical data on the blockchain\r\n    function storeMedicalData(string memory _deviceId, uint _value) public {\r\n        // Record the current timestamp\r\n        uint currentTimestamp = now;\r\n\r\n        // Store the medical data in the contract's storage\r\n        medicalRecords[recordCount] = MedicalData(currentTimestamp, _deviceId, _value);\r\n        \r\n        // Emit event for data storage\r\n        emit DataStored(currentTimestamp, _deviceId, _value);\r\n        \r\n        // Check if the value exceeds the threshold and trigger an action\r\n        if (_value > thresholdValue) {\r\n            // Emit an event if the threshold is exceeded\r\n            emit ThresholdExceeded(_deviceId, _value, currentTimestamp);\r\n        }\r\n\r\n        // Increment the record count\r\n        recordCount++;\r\n    }\r\n\r\n    // Function to retrieve medical data by index\r\n    function getMedicalData(uint _index) public view returns (uint, string memory, uint) {\r\n        MedicalData memory data = medicalRecords[_index];\r\n        return (data.timestamp, data.deviceId, data.value);\r\n    }\r\n\r\n    // Function to get the total number of records stored\r\n    function getRecordCount() public view returns (uint) {\r\n        return recordCount;\r\n    }\r\n}\r\n",
  "sourcePath": "C:\\Users\\91931\\Desktop\\btp\\BlockChain-Based-Fraud-Detection-System\\blockchain\\contracts\\FraudDetectionSystem.sol",
  "compiler": {
    "name": "solc",
    "version": "0.5.16+commit.9c3226ce.Emscripten.clang"
  },
  "schemaVersion": "3.4.16",
  "updatedAt": "2024-09-19T07:24:10.821Z",
  "devdoc": {
    "methods": {}
  },
  "userdoc": {
    "methods": {}
  }
}